{
  "contractName": "GeneScience",
  "abi": [
    {
      "constant": true,
      "inputs": [],
      "name": "isGeneScience",
      "outputs": [
        {
          "name": "",
          "type": "bool"
        }
      ],
      "payable": false,
      "stateMutability": "pure",
      "type": "function"
    },
    {
      "constant": false,
      "inputs": [
        {
          "name": "genes1",
          "type": "uint256"
        },
        {
          "name": "genes2",
          "type": "uint256"
        },
        {
          "name": "targetBlock",
          "type": "uint256"
        }
      ],
      "name": "mixGenes",
      "outputs": [
        {
          "name": "",
          "type": "uint256"
        }
      ],
      "payable": false,
      "stateMutability": "nonpayable",
      "type": "function"
    }
  ],
  "bytecode": "0x608060405234801561001057600080fd5b5060d88061001f6000396000f30060806040526004361060485763ffffffff7c01000000000000000000000000000000000000000000000000000000006000350416630d9f5aed8114604d57806354c15b8214607a575b600080fd5b348015605857600080fd5b50606860043560243560443560a0565b60408051918252519081900360200190f35b348015608557600080fd5b50608c60a7565b604080519115158252519081900360200190f35b5090919050565b6001905600a165627a7a72305820231a3d15a7cf731e6f16d5c0c15e5f811a316b6f58658d4568ea2213036ab6750029",
  "source": "pragma solidity ^0.4.11;\n\ncontract GeneScience {\n    /// @dev simply a boolean to indicate this is the contract we expect to be\n    function isGeneScience() public pure returns (bool) {\n      return true;\n    }\n\n    /// @dev given genes of kitten 1 & 2, return a genetic combination - may have a random factor\n    /// @param genes1 genes of mom\n    /// @param genes2 genes of sire\n    /// @return the genes that are supposed to be passed down the child\n    function mixGenes(uint256 genes1, uint256 genes2, uint256 targetBlock) public returns (uint256) {\n      return genes1; // MVP\n    }\n}\n",
  "sourcePath": "/Users/rubenchavarri/blockchain/commitkitties/commitkitties-contracts/contracts/GeneScience.sol",
  "compiler": {
    "name": "solc",
    "version": "0.4.24+commit.e67f0147.Emscripten.clang"
  },
  "schemaVersion": "2.0.1",
  "updatedAt": "2018-11-12T00:19:24.203Z"
}